{
  "abi": [
    {
      "inputs": [
        {
          "internalType": "address",
          "name": "_LinkToken",
          "type": "address"
        },
        {
          "internalType": "uint64",
          "name": "_subscriptionId",
          "type": "uint64"
        }
      ],
      "stateMutability": "nonpayable",
      "type": "constructor"
    },
    {
      "anonymous": false,
      "inputs": [
        {
          "indexed": true,
          "internalType": "address",
          "name": "owner",
          "type": "address"
        },
        {
          "indexed": true,
          "internalType": "address",
          "name": "approved",
          "type": "address"
        },
        {
          "indexed": true,
          "internalType": "uint256",
          "name": "tokenId",
          "type": "uint256"
        }
      ],
      "name": "Approval",
      "type": "event"
    },
    {
      "anonymous": false,
      "inputs": [
        {
          "indexed": true,
          "internalType": "address",
          "name": "owner",
          "type": "address"
        },
        {
          "indexed": true,
          "internalType": "address",
          "name": "operator",
          "type": "address"
        },
        {
          "indexed": false,
          "internalType": "bool",
          "name": "approved",
          "type": "bool"
        }
      ],
      "name": "ApprovalForAll",
      "type": "event"
    },
    {
      "anonymous": false,
      "inputs": [
        {
          "indexed": false,
          "internalType": "uint256",
          "name": "_fromTokenId",
          "type": "uint256"
        },
        {
          "indexed": false,
          "internalType": "uint256",
          "name": "_toTokenId",
          "type": "uint256"
        }
      ],
      "name": "BatchMetadataUpdate",
      "type": "event"
    },
    {
      "anonymous": false,
      "inputs": [
        {
          "indexed": false,
          "internalType": "uint256",
          "name": "_tokenId",
          "type": "uint256"
        }
      ],
      "name": "MetadataUpdate",
      "type": "event"
    },
    {
      "anonymous": false,
      "inputs": [
        {
          "indexed": true,
          "internalType": "address",
          "name": "previousOwner",
          "type": "address"
        },
        {
          "indexed": true,
          "internalType": "address",
          "name": "newOwner",
          "type": "address"
        }
      ],
      "name": "OwnershipTransferred",
      "type": "event"
    },
    {
      "anonymous": false,
      "inputs": [
        {
          "indexed": true,
          "internalType": "address",
          "name": "from",
          "type": "address"
        },
        {
          "indexed": true,
          "internalType": "address",
          "name": "to",
          "type": "address"
        },
        {
          "indexed": true,
          "internalType": "uint256",
          "name": "tokenId",
          "type": "uint256"
        }
      ],
      "name": "Transfer",
      "type": "event"
    },
    {
      "inputs": [],
      "name": "LinkToken",
      "outputs": [
        {
          "internalType": "address",
          "name": "",
          "type": "address"
        }
      ],
      "stateMutability": "view",
      "type": "function"
    },
    {
      "inputs": [
        {
          "internalType": "address",
          "name": "to",
          "type": "address"
        },
        {
          "internalType": "uint256",
          "name": "tokenId",
          "type": "uint256"
        }
      ],
      "name": "approve",
      "outputs": [],
      "stateMutability": "nonpayable",
      "type": "function"
    },
    {
      "inputs": [
        {
          "internalType": "address",
          "name": "owner",
          "type": "address"
        }
      ],
      "name": "balanceOf",
      "outputs": [
        {
          "internalType": "uint256",
          "name": "",
          "type": "uint256"
        }
      ],
      "stateMutability": "view",
      "type": "function"
    },
    {
      "inputs": [
        {
          "internalType": "uint256",
          "name": "",
          "type": "uint256"
        }
      ],
      "name": "equipment",
      "outputs": [
        {
          "internalType": "uint256",
          "name": "size",
          "type": "uint256"
        },
        {
          "internalType": "uint256",
          "name": "weight",
          "type": "uint256"
        },
        {
          "internalType": "uint256",
          "name": "stock",
          "type": "uint256"
        },
        {
          "internalType": "uint256",
          "name": "gripdegree",
          "type": "uint256"
        },
        {
          "internalType": "uint256",
          "name": "scope",
          "type": "uint256"
        },
        {
          "internalType": "uint256",
          "name": "range",
          "type": "uint256"
        },
        {
          "internalType": "string",
          "name": "name",
          "type": "string"
        }
      ],
      "stateMutability": "view",
      "type": "function"
    },
    {
      "inputs": [
        {
          "internalType": "uint256",
          "name": "tokenId",
          "type": "uint256"
        }
      ],
      "name": "getApproved",
      "outputs": [
        {
          "internalType": "address",
          "name": "",
          "type": "address"
        }
      ],
      "stateMutability": "view",
      "type": "function"
    },
    {
      "inputs": [],
      "name": "getNumberOfEquipments",
      "outputs": [
        {
          "internalType": "uint256",
          "name": "",
          "type": "uint256"
        }
      ],
      "stateMutability": "view",
      "type": "function"
    },
    {
      "inputs": [
        {
          "internalType": "uint256",
          "name": "tokenId",
          "type": "uint256"
        }
      ],
      "name": "getTokenURI",
      "outputs": [
        {
          "internalType": "string",
          "name": "",
          "type": "string"
        }
      ],
      "stateMutability": "view",
      "type": "function"
    },
    {
      "inputs": [
        {
          "internalType": "address",
          "name": "owner",
          "type": "address"
        },
        {
          "internalType": "address",
          "name": "operator",
          "type": "address"
        }
      ],
      "name": "isApprovedForAll",
      "outputs": [
        {
          "internalType": "bool",
          "name": "",
          "type": "bool"
        }
      ],
      "stateMutability": "view",
      "type": "function"
    },
    {
      "inputs": [],
      "name": "name",
      "outputs": [
        {
          "internalType": "string",
          "name": "",
          "type": "string"
        }
      ],
      "stateMutability": "view",
      "type": "function"
    },
    {
      "inputs": [],
      "name": "owner",
      "outputs": [
        {
          "internalType": "address",
          "name": "",
          "type": "address"
        }
      ],
      "stateMutability": "view",
      "type": "function"
    },
    {
      "inputs": [
        {
          "internalType": "uint256",
          "name": "tokenId",
          "type": "uint256"
        }
      ],
      "name": "ownerOf",
      "outputs": [
        {
          "internalType": "address",
          "name": "",
          "type": "address"
        }
      ],
      "stateMutability": "view",
      "type": "function"
    },
    {
      "inputs": [
        {
          "internalType": "bytes32",
          "name": "requestId",
          "type": "bytes32"
        },
        {
          "internalType": "uint256",
          "name": "randomness",
          "type": "uint256"
        }
      ],
      "name": "rawFulfillRandomness",
      "outputs": [],
      "stateMutability": "nonpayable",
      "type": "function"
    },
    {
      "inputs": [],
      "name": "renounceOwnership",
      "outputs": [],
      "stateMutability": "nonpayable",
      "type": "function"
    },
    {
      "inputs": [
        {
          "internalType": "string",
          "name": "name",
          "type": "string"
        }
      ],
      "name": "requestNewEquip",
      "outputs": [
        {
          "internalType": "bytes32",
          "name": "",
          "type": "bytes32"
        }
      ],
      "stateMutability": "nonpayable",
      "type": "function"
    },
    {
      "inputs": [
        {
          "internalType": "address",
          "name": "from",
          "type": "address"
        },
        {
          "internalType": "address",
          "name": "to",
          "type": "address"
        },
        {
          "internalType": "uint256",
          "name": "tokenId",
          "type": "uint256"
        }
      ],
      "name": "safeTransferFrom",
      "outputs": [],
      "stateMutability": "nonpayable",
      "type": "function"
    },
    {
      "inputs": [
        {
          "internalType": "address",
          "name": "from",
          "type": "address"
        },
        {
          "internalType": "address",
          "name": "to",
          "type": "address"
        },
        {
          "internalType": "uint256",
          "name": "tokenId",
          "type": "uint256"
        },
        {
          "internalType": "bytes",
          "name": "data",
          "type": "bytes"
        }
      ],
      "name": "safeTransferFrom",
      "outputs": [],
      "stateMutability": "nonpayable",
      "type": "function"
    },
    {
      "inputs": [
        {
          "internalType": "address",
          "name": "operator",
          "type": "address"
        },
        {
          "internalType": "bool",
          "name": "approved",
          "type": "bool"
        }
      ],
      "name": "setApprovalForAll",
      "outputs": [],
      "stateMutability": "nonpayable",
      "type": "function"
    },
    {
      "inputs": [
        {
          "internalType": "uint256",
          "name": "tokenId",
          "type": "uint256"
        },
        {
          "internalType": "string",
          "name": "_tokenURI",
          "type": "string"
        }
      ],
      "name": "setTokenURI",
      "outputs": [],
      "stateMutability": "nonpayable",
      "type": "function"
    },
    {
      "inputs": [
        {
          "internalType": "bytes4",
          "name": "interfaceId",
          "type": "bytes4"
        }
      ],
      "name": "supportsInterface",
      "outputs": [
        {
          "internalType": "bool",
          "name": "",
          "type": "bool"
        }
      ],
      "stateMutability": "view",
      "type": "function"
    },
    {
      "inputs": [],
      "name": "symbol",
      "outputs": [
        {
          "internalType": "string",
          "name": "",
          "type": "string"
        }
      ],
      "stateMutability": "view",
      "type": "function"
    },
    {
      "inputs": [
        {
          "internalType": "uint256",
          "name": "tokenId",
          "type": "uint256"
        }
      ],
      "name": "tokenURI",
      "outputs": [
        {
          "internalType": "string",
          "name": "",
          "type": "string"
        }
      ],
      "stateMutability": "view",
      "type": "function"
    },
    {
      "inputs": [
        {
          "internalType": "address",
          "name": "from",
          "type": "address"
        },
        {
          "internalType": "address",
          "name": "to",
          "type": "address"
        },
        {
          "internalType": "uint256",
          "name": "tokenId",
          "type": "uint256"
        }
      ],
      "name": "transferFrom",
      "outputs": [],
      "stateMutability": "nonpayable",
      "type": "function"
    },
    {
      "inputs": [
        {
          "internalType": "address",
          "name": "newOwner",
          "type": "address"
        }
      ],
      "name": "transferOwnership",
      "outputs": [],
      "stateMutability": "nonpayable",
      "type": "function"
    }
  ],
  "bytecode": {
    "object": "0x60c06040523480156200001157600080fd5b506040516200244a3803806200244a8339810160408190526200003491620001a7565b732ca8e0c643bde4c2e08ab1fa0da3401adad7734d82604051806040016040528060078152602001664368657974616360c81b8152506040518060400160405280600281526020016110d560f21b8152508160009081620000969190620002a1565b506001620000a58282620002a1565b5050506001600160a01b0391821660a05216608052620000c53362000155565b600b80546001600160a01b031916732ca8e0c643bde4c2e08ab1fa0da3401adad7734d179055600c80547f79d3d8832d904592c0bf9818b621522c988bb8b0c05cdc3b15aea1b6e8db0c1560095567016345785d8a0000600a556001600160401b03909216600160a01b026001600160e01b03199092166001600160a01b0393909316929092171790556200036d565b600880546001600160a01b038381166001600160a01b0319831681179093556040519116919082907f8be0079c531659141344cd1fd0a4f28419497f9722a3daafe3b4186f6b6457e090600090a35050565b60008060408385031215620001bb57600080fd5b82516001600160a01b0381168114620001d357600080fd5b60208401519092506001600160401b0381168114620001f157600080fd5b809150509250929050565b634e487b7160e01b600052604160045260246000fd5b600181811c908216806200022757607f821691505b6020821081036200024857634e487b7160e01b600052602260045260246000fd5b50919050565b601f8211156200029c57600081815260208120601f850160051c81016020861015620002775750805b601f850160051c820191505b81811015620002985782815560010162000283565b5050505b505050565b81516001600160401b03811115620002bd57620002bd620001fc565b620002d581620002ce845462000212565b846200024e565b602080601f8311600181146200030d5760008415620002f45750858301515b600019600386901b1c1916600185901b17855562000298565b600085815260208120601f198616915b828110156200033e578886015182559484019460019091019084016200031d565b50858210156200035d5787850151600019600388901b60f8161c191681555b5050505050600190811b01905550565b60805160a0516120a9620003a1600039600081816107cb015261132a0152600081816108b701526112fb01526120a96000f3fe608060405234801561001057600080fd5b506004361061014d5760003560e01c806365b817e6116100c3578063a22cb4651161007c578063a22cb465146102c0578063b88d4fde146102d3578063b9284665146102e6578063c87b56dd146102f9578063e985e9c51461030c578063f2fde38b1461031f57600080fd5b806365b817e61461025357806370a0823114610279578063715018a61461028c5780638da5cb5b1461029457806394985ddd146102a557806395d89b41146102b857600080fd5b806323b872dd1161011557806323b872dd146101e257806335b69ce8146101f55780633bb3a24d1461020757806342842e0e1461021a5780634f8e2fdf1461022d5780636352211e1461024057600080fd5b806301ffc9a71461015257806306fdde031461017a578063081812fc1461018f578063095ea7b3146101ba578063162094c4146101cf575b600080fd5b610165610160366004611941565b610332565b60405190151581526020015b60405180910390f35b61018261035d565b60405161017191906119ae565b6101a261019d3660046119c1565b6103ef565b6040516001600160a01b039091168152602001610171565b6101cd6101c83660046119f6565b610416565b005b6101cd6101dd366004611acc565b610530565b6101cd6101f0366004611b13565b610595565b600d545b604051908152602001610171565b6101826102153660046119c1565b6105c6565b6101cd610228366004611b13565b6105d1565b600c546101a2906001600160a01b031681565b6101a261024e3660046119c1565b6105ec565b6102666102613660046119c1565b61064c565b6040516101719796959493929190611b4f565b6101f9610287366004611b93565b610726565b6101cd6107ac565b6008546001600160a01b03166101a2565b6101cd6102b3366004611bae565b6107c0565b610182610842565b6101cd6102ce366004611bde565b610851565b6101cd6102e1366004611c15565b61085c565b6101f96102f4366004611c91565b610893565b6101826103073660046119c1565b6109b3565b61016561031a366004611cc6565b610ac3565b6101cd61032d366004611b93565b610af1565b60006001600160e01b03198216632483248360e11b1480610357575061035782610b6a565b92915050565b60606000805461036c90611cf9565b80601f016020809104026020016040519081016040528092919081815260200182805461039890611cf9565b80156103e55780601f106103ba576101008083540402835291602001916103e5565b820191906000526020600020905b8154815290600101906020018083116103c857829003601f168201915b5050505050905090565b60006103fa82610bba565b506000908152600460205260409020546001600160a01b031690565b6000610421826105ec565b9050806001600160a01b0316836001600160a01b0316036104935760405162461bcd60e51b815260206004820152602160248201527f4552433732313a20617070726f76616c20746f2063757272656e74206f776e656044820152603960f91b60648201526084015b60405180910390fd5b336001600160a01b03821614806104af57506104af8133610ac3565b6105215760405162461bcd60e51b815260206004820152603d60248201527f4552433732313a20617070726f76652063616c6c6572206973206e6f7420746f60448201527f6b656e206f776e6572206f7220617070726f76656420666f7220616c6c000000606482015260840161048a565b61052b8383610c19565b505050565b61053b335b83610c87565b6105875760405162461bcd60e51b815260206004820181905260248201527f43616c6c6572206973206e6f74206f776e6572206e6f7220617070726f766564604482015260640161048a565b6105918282610ce5565b5050565b61059f3382610c87565b6105bb5760405162461bcd60e51b815260040161048a90611d33565b61052b838383610db0565b6060610357826109b3565b61052b8383836040518060200160405280600081525061085c565b6000818152600260205260408120546001600160a01b0316806103575760405162461bcd60e51b8152602060048201526018602482015277115490cdcc8c4e881a5b9d985b1a59081d1bdad95b88125160421b604482015260640161048a565b600d818154811061065c57600080fd5b90600052602060002090600702016000915090508060000154908060010154908060020154908060030154908060040154908060050154908060060180546106a390611cf9565b80601f01602080910402602001604051908101604052809291908181526020018280546106cf90611cf9565b801561071c5780601f106106f15761010080835404028352916020019161071c565b820191906000526020600020905b8154815290600101906020018083116106ff57829003601f168201915b5050505050905087565b60006001600160a01b0382166107905760405162461bcd60e51b815260206004820152602960248201527f4552433732313a2061646472657373207a65726f206973206e6f7420612076616044820152683634b21037bbb732b960b91b606482015260840161048a565b506001600160a01b031660009081526003602052604090205490565b6107b4610f14565b6107be6000610f6e565b565b336001600160a01b037f000000000000000000000000000000000000000000000000000000000000000016146108385760405162461bcd60e51b815260206004820152601f60248201527f4f6e6c7920565246436f6f7264696e61746f722063616e2066756c66696c6c00604482015260640161048a565b6105918282610fc0565b60606001805461036c90611cf9565b6105913383836111f6565b61086533610535565b6108815760405162461bcd60e51b815260040161048a90611d33565b61088d848484846112c4565b50505050565b600a546040516370a0823160e01b8152306004820152600091906001600160a01b037f000000000000000000000000000000000000000000000000000000000000000016906370a0823190602401602060405180830381865afa1580156108fe573d6000803e3d6000fd5b505050506040513d601f19601f820116820180604052508101906109229190611d80565b10156109635760405162461bcd60e51b815260206004820152601060248201526f496e737566666963656e74204c696e6b60801b604482015260640161048a565b6000610973600954600a546112f7565b6000818152600e6020526040902090915061098e8482611de7565b506000818152600f6020526040902080546001600160a01b0319163317905592915050565b60606109be82610bba565b600082815260066020526040812080546109d790611cf9565b80601f0160208091040260200160405190810160405280929190818152602001828054610a0390611cf9565b8015610a505780601f10610a2557610100808354040283529160200191610a50565b820191906000526020600020905b815481529060010190602001808311610a3357829003601f168201915b505050505090506000610a6e60408051602081019091526000815290565b90508051600003610a80575092915050565b815115610ab2578082604051602001610a9a929190611ea7565b60405160208183030381529060405292505050919050565b610abb84611473565b949350505050565b6001600160a01b03918216600090815260056020908152604080832093909416825291909152205460ff1690565b610af9610f14565b6001600160a01b038116610b5e5760405162461bcd60e51b815260206004820152602660248201527f4f776e61626c653a206e6577206f776e657220697320746865207a65726f206160448201526564647265737360d01b606482015260840161048a565b610b6781610f6e565b50565b60006001600160e01b031982166380ac58cd60e01b1480610b9b57506001600160e01b03198216635b5e139f60e01b145b8061035757506301ffc9a760e01b6001600160e01b0319831614610357565b6000818152600260205260409020546001600160a01b0316610b675760405162461bcd60e51b8152602060048201526018602482015277115490cdcc8c4e881a5b9d985b1a59081d1bdad95b88125160421b604482015260640161048a565b600081815260046020526040902080546001600160a01b0319166001600160a01b0384169081179091558190610c4e826105ec565b6001600160a01b03167f8c5be1e5ebec7d5bd14f71427d1e84f3dd0314c0f7b2291e5b200ac8c7c3b92560405160405180910390a45050565b600080610c93836105ec565b9050806001600160a01b0316846001600160a01b03161480610cba5750610cba8185610ac3565b80610abb5750836001600160a01b0316610cd3846103ef565b6001600160a01b031614949350505050565b6000828152600260205260409020546001600160a01b0316610d605760405162461bcd60e51b815260206004820152602e60248201527f45524337323155524953746f726167653a2055524920736574206f66206e6f6e60448201526d32bc34b9ba32b73a103a37b5b2b760911b606482015260840161048a565b6000828152600660205260409020610d788282611de7565b506040518281527ff8e1a15aba9398e019f0b49df1a4fde98ee17ae345cb5f6b5e2c27f5033e8ce79060200160405180910390a15050565b826001600160a01b0316610dc3826105ec565b6001600160a01b031614610de95760405162461bcd60e51b815260040161048a90611ed6565b6001600160a01b038216610e4b5760405162461bcd60e51b8152602060048201526024808201527f4552433732313a207472616e7366657220746f20746865207a65726f206164646044820152637265737360e01b606482015260840161048a565b826001600160a01b0316610e5e826105ec565b6001600160a01b031614610e845760405162461bcd60e51b815260040161048a90611ed6565b600081815260046020908152604080832080546001600160a01b03199081169091556001600160a01b0387811680865260038552838620805460001901905590871680865283862080546001019055868652600290945282852080549092168417909155905184937fddf252ad1be2c89b69c2b068fc378daa952ba7f163c4a11628f55a4df523b3ef91a4505050565b6008546001600160a01b031633146107be5760405162461bcd60e51b815260206004820181905260248201527f4f776e61626c653a2063616c6c6572206973206e6f7420746865206f776e6572604482015260640161048a565b600880546001600160a01b038381166001600160a01b0319831681179093556040519116919082907f8be0079c531659141344cd1fd0a4f28419497f9722a3daafe3b4186f6b6457e090600090a35050565b600d5460006012610fd2606485611f31565b610fdc9190611f31565b905060006012600a610ff06103e887611f31565b610ffa9190611f45565b6110049190611f31565b905060006012600a6110186103e888611f31565b6110229190611f45565b61102c9190611f31565b905060006012600a61103f606489611f31565b6110499190611f45565b6110539190611f31565b905060006012611064606489611f31565b61106e9190611f31565b9050600060126110806103e88a611f31565b61108a9190611f31565b9050600d6040518060e00160405280888152602001878152602001868152602001858152602001848152602001838152602001600e60008d815260200190815260200160002080546110db90611cf9565b80601f016020809104026020016040519081016040528092919081815260200182805461110790611cf9565b80156111545780601f1061112957610100808354040283529160200191611154565b820191906000526020600020905b81548152906001019060200180831161113757829003601f168201915b50505091909252505081546001818101845560009384526020938490208351600790930201918255928201519281019290925560408101516002830155606081015160038301556080810151600483015560a0810151600583015560c081015190919060068201906111c69082611de7565b5050506000898152600f60205260409020546111eb906001600160a01b0316886114e7565b505050505050505050565b816001600160a01b0316836001600160a01b0316036112575760405162461bcd60e51b815260206004820152601960248201527f4552433732313a20617070726f766520746f2063616c6c657200000000000000604482015260640161048a565b6001600160a01b03838116600081815260056020908152604080832094871680845294825291829020805460ff191686151590811790915591519182527f17307eab39ab6107e8899845ad3d59bd9653f200f220920489ca2b5937696c31910160405180910390a3505050565b6112cf848484610db0565b6112db84848484611501565b61088d5760405162461bcd60e51b815260040161048a90611f59565b60007f00000000000000000000000000000000000000000000000000000000000000006001600160a01b0316634000aea07f000000000000000000000000000000000000000000000000000000000000000084866000604051602001611367929190918252602082015260400190565b6040516020818303038152906040526040518463ffffffff1660e01b815260040161139493929190611fab565b6020604051808303816000875af11580156113b3573d6000803e3d6000fd5b505050506040513d601f19601f820116820180604052508101906113d79190611fdb565b50600083815260076020818152604080842054815180840189905280830186905230606082015260808082018390528351808303909101815260a090910190925281519183019190912093879052919052611433906001611ff8565b600085815260076020526040902055610abb8482604080516020808201949094528082019290925280518083038201815260609092019052805191012090565b606061147e82610bba565b600061149560408051602081019091526000815290565b905060008151116114b557604051806020016040528060008152506114e0565b806114bf84611602565b6040516020016114d0929190611ea7565b6040516020818303038152906040525b9392505050565b610591828260405180602001604052806000815250611695565b60006001600160a01b0384163b156115f757604051630a85bd0160e11b81526001600160a01b0385169063150b7a0290611545903390899088908890600401612019565b6020604051808303816000875af1925050508015611580575060408051601f3d908101601f1916820190925261157d91810190612056565b60015b6115dd573d8080156115ae576040519150601f19603f3d011682016040523d82523d6000602084013e6115b3565b606091505b5080516000036115d55760405162461bcd60e51b815260040161048a90611f59565b805181602001fd5b6001600160e01b031916630a85bd0160e11b149050610abb565b506001949350505050565b6060600061160f836116c8565b600101905060008167ffffffffffffffff81111561162f5761162f611a20565b6040519080825280601f01601f191660200182016040528015611659576020820181803683370190505b5090508181016020015b600019016f181899199a1a9b1b9c1cb0b131b232b360811b600a86061a8153600a850494508461166357509392505050565b61169f83836117a0565b6116ac6000848484611501565b61052b5760405162461bcd60e51b815260040161048a90611f59565b60008072184f03e93ff9f4daa797ed6e38ed64bf6a1f0160401b83106117075772184f03e93ff9f4daa797ed6e38ed64bf6a1f0160401b830492506040015b6d04ee2d6d415b85acef81000000008310611733576d04ee2d6d415b85acef8100000000830492506020015b662386f26fc10000831061175157662386f26fc10000830492506010015b6305f5e1008310611769576305f5e100830492506008015b612710831061177d57612710830492506004015b6064831061178f576064830492506002015b600a83106103575760010192915050565b6001600160a01b0382166117f65760405162461bcd60e51b815260206004820181905260248201527f4552433732313a206d696e7420746f20746865207a65726f2061646472657373604482015260640161048a565b6000818152600260205260409020546001600160a01b03161561185b5760405162461bcd60e51b815260206004820152601c60248201527f4552433732313a20746f6b656e20616c7265616479206d696e74656400000000604482015260640161048a565b6000818152600260205260409020546001600160a01b0316156118c05760405162461bcd60e51b815260206004820152601c60248201527f4552433732313a20746f6b656e20616c7265616479206d696e74656400000000604482015260640161048a565b6001600160a01b038216600081815260036020908152604080832080546001019055848352600290915280822080546001600160a01b0319168417905551839291907fddf252ad1be2c89b69c2b068fc378daa952ba7f163c4a11628f55a4df523b3ef908290a45050565b6001600160e01b031981168114610b6757600080fd5b60006020828403121561195357600080fd5b81356114e08161192b565b60005b83811015611979578181015183820152602001611961565b50506000910152565b6000815180845261199a81602086016020860161195e565b601f01601f19169290920160200192915050565b6020815260006114e06020830184611982565b6000602082840312156119d357600080fd5b5035919050565b80356001600160a01b03811681146119f157600080fd5b919050565b60008060408385031215611a0957600080fd5b611a12836119da565b946020939093013593505050565b634e487b7160e01b600052604160045260246000fd5b600067ffffffffffffffff80841115611a5157611a51611a20565b604051601f8501601f19908116603f01168101908282118183101715611a7957611a79611a20565b81604052809350858152868686011115611a9257600080fd5b858560208301376000602087830101525050509392505050565b600082601f830112611abd57600080fd5b6114e083833560208501611a36565b60008060408385031215611adf57600080fd5b82359150602083013567ffffffffffffffff811115611afd57600080fd5b611b0985828601611aac565b9150509250929050565b600080600060608486031215611b2857600080fd5b611b31846119da565b9250611b3f602085016119da565b9150604084013590509250925092565b8781528660208201528560408201528460608201528360808201528260a082015260e060c08201526000611b8660e0830184611982565b9998505050505050505050565b600060208284031215611ba557600080fd5b6114e0826119da565b60008060408385031215611bc157600080fd5b50508035926020909101359150565b8015158114610b6757600080fd5b60008060408385031215611bf157600080fd5b611bfa836119da565b91506020830135611c0a81611bd0565b809150509250929050565b60008060008060808587031215611c2b57600080fd5b611c34856119da565b9350611c42602086016119da565b925060408501359150606085013567ffffffffffffffff811115611c6557600080fd5b8501601f81018713611c7657600080fd5b611c8587823560208401611a36565b91505092959194509250565b600060208284031215611ca357600080fd5b813567ffffffffffffffff811115611cba57600080fd5b610abb84828501611aac565b60008060408385031215611cd957600080fd5b611ce2836119da565b9150611cf0602084016119da565b90509250929050565b600181811c90821680611d0d57607f821691505b602082108103611d2d57634e487b7160e01b600052602260045260246000fd5b50919050565b6020808252602d908201527f4552433732313a2063616c6c6572206973206e6f7420746f6b656e206f776e6560408201526c1c881bdc88185c1c1c9bdd9959609a1b606082015260800190565b600060208284031215611d9257600080fd5b5051919050565b601f82111561052b57600081815260208120601f850160051c81016020861015611dc05750805b601f850160051c820191505b81811015611ddf57828155600101611dcc565b505050505050565b815167ffffffffffffffff811115611e0157611e01611a20565b611e1581611e0f8454611cf9565b84611d99565b602080601f831160018114611e4a5760008415611e325750858301515b600019600386901b1c1916600185901b178555611ddf565b600085815260208120601f198616915b82811015611e7957888601518255948401946001909101908401611e5a565b5085821015611e975787850151600019600388901b60f8161c191681555b5050505050600190811b01905550565b60008351611eb981846020880161195e565b835190830190611ecd81836020880161195e565b01949350505050565b60208082526025908201527f4552433732313a207472616e736665722066726f6d20696e636f72726563742060408201526437bbb732b960d91b606082015260800190565b634e487b7160e01b600052601260045260246000fd5b600082611f4057611f40611f1b565b500690565b600082611f5457611f54611f1b565b500490565b60208082526032908201527f4552433732313a207472616e7366657220746f206e6f6e20455243373231526560408201527131b2b4bb32b91034b6b83632b6b2b73a32b960711b606082015260800190565b60018060a01b0384168152826020820152606060408201526000611fd26060830184611982565b95945050505050565b600060208284031215611fed57600080fd5b81516114e081611bd0565b8082018082111561035757634e487b7160e01b600052601160045260246000fd5b6001600160a01b038581168252841660208201526040810183905260806060820181905260009061204c90830184611982565b9695505050505050565b60006020828403121561206857600080fd5b81516114e08161192b56fea2646970667358221220ec07046d794303e4f17a62f9e5303c1097d99c9bcdd7db15da43cadf1dbb743164736f6c63430008130033",
    "linkReferences": {}
  },
  "methodIdentifiers": {
    "LinkToken()": "4f8e2fdf",
    "approve(address,uint256)": "095ea7b3",
    "balanceOf(address)": "70a08231",
    "equipment(uint256)": "65b817e6",
    "getApproved(uint256)": "081812fc",
    "getNumberOfEquipments()": "35b69ce8",
    "getTokenURI(uint256)": "3bb3a24d",
    "isApprovedForAll(address,address)": "e985e9c5",
    "name()": "06fdde03",
    "owner()": "8da5cb5b",
    "ownerOf(uint256)": "6352211e",
    "rawFulfillRandomness(bytes32,uint256)": "94985ddd",
    "renounceOwnership()": "715018a6",
    "requestNewEquip(string)": "b9284665",
    "safeTransferFrom(address,address,uint256)": "42842e0e",
    "safeTransferFrom(address,address,uint256,bytes)": "b88d4fde",
    "setApprovalForAll(address,bool)": "a22cb465",
    "setTokenURI(uint256,string)": "162094c4",
    "supportsInterface(bytes4)": "01ffc9a7",
    "symbol()": "95d89b41",
    "tokenURI(uint256)": "c87b56dd",
    "transferFrom(address,address,uint256)": "23b872dd",
    "transferOwnership(address)": "f2fde38b"
  },
  "id": 1
}